{
  "address": "0xcA67f2fCD54199bd411047882789B593b31CCeAc",
  "abi": [
    {
      "inputs": [
        {
          "internalType": "string",
          "name": "_baseURI",
          "type": "string"
        }
      ],
      "stateMutability": "nonpayable",
      "type": "constructor"
    },
    {
      "anonymous": false,
      "inputs": [
        {
          "indexed": true,
          "internalType": "address",
          "name": "owner",
          "type": "address"
        },
        {
          "indexed": true,
          "internalType": "address",
          "name": "approved",
          "type": "address"
        },
        {
          "indexed": true,
          "internalType": "uint256",
          "name": "tokenId",
          "type": "uint256"
        }
      ],
      "name": "Approval",
      "type": "event"
    },
    {
      "anonymous": false,
      "inputs": [
        {
          "indexed": true,
          "internalType": "address",
          "name": "owner",
          "type": "address"
        },
        {
          "indexed": true,
          "internalType": "address",
          "name": "operator",
          "type": "address"
        },
        {
          "indexed": false,
          "internalType": "bool",
          "name": "approved",
          "type": "bool"
        }
      ],
      "name": "ApprovalForAll",
      "type": "event"
    },
    {
      "anonymous": false,
      "inputs": [
        {
          "indexed": true,
          "internalType": "bytes32",
          "name": "role",
          "type": "bytes32"
        },
        {
          "indexed": true,
          "internalType": "bytes32",
          "name": "previousAdminRole",
          "type": "bytes32"
        },
        {
          "indexed": true,
          "internalType": "bytes32",
          "name": "newAdminRole",
          "type": "bytes32"
        }
      ],
      "name": "RoleAdminChanged",
      "type": "event"
    },
    {
      "anonymous": false,
      "inputs": [
        {
          "indexed": true,
          "internalType": "bytes32",
          "name": "role",
          "type": "bytes32"
        },
        {
          "indexed": true,
          "internalType": "address",
          "name": "account",
          "type": "address"
        },
        {
          "indexed": true,
          "internalType": "address",
          "name": "sender",
          "type": "address"
        }
      ],
      "name": "RoleGranted",
      "type": "event"
    },
    {
      "anonymous": false,
      "inputs": [
        {
          "indexed": true,
          "internalType": "bytes32",
          "name": "role",
          "type": "bytes32"
        },
        {
          "indexed": true,
          "internalType": "address",
          "name": "account",
          "type": "address"
        },
        {
          "indexed": true,
          "internalType": "address",
          "name": "sender",
          "type": "address"
        }
      ],
      "name": "RoleRevoked",
      "type": "event"
    },
    {
      "anonymous": false,
      "inputs": [
        {
          "indexed": true,
          "internalType": "address",
          "name": "from",
          "type": "address"
        },
        {
          "indexed": true,
          "internalType": "address",
          "name": "to",
          "type": "address"
        },
        {
          "indexed": true,
          "internalType": "uint256",
          "name": "tokenId",
          "type": "uint256"
        }
      ],
      "name": "Transfer",
      "type": "event"
    },
    {
      "inputs": [],
      "name": "ADMIN_ROLE",
      "outputs": [
        {
          "internalType": "bytes32",
          "name": "",
          "type": "bytes32"
        }
      ],
      "stateMutability": "view",
      "type": "function"
    },
    {
      "inputs": [],
      "name": "BURNER_ROLE",
      "outputs": [
        {
          "internalType": "bytes32",
          "name": "",
          "type": "bytes32"
        }
      ],
      "stateMutability": "view",
      "type": "function"
    },
    {
      "inputs": [],
      "name": "DEFAULT_ADMIN_ROLE",
      "outputs": [
        {
          "internalType": "bytes32",
          "name": "",
          "type": "bytes32"
        }
      ],
      "stateMutability": "view",
      "type": "function"
    },
    {
      "inputs": [],
      "name": "MINTER_ROLE",
      "outputs": [
        {
          "internalType": "bytes32",
          "name": "",
          "type": "bytes32"
        }
      ],
      "stateMutability": "view",
      "type": "function"
    },
    {
      "inputs": [
        {
          "internalType": "address",
          "name": "to",
          "type": "address"
        },
        {
          "internalType": "uint256",
          "name": "tokenId",
          "type": "uint256"
        }
      ],
      "name": "approve",
      "outputs": [],
      "stateMutability": "nonpayable",
      "type": "function"
    },
    {
      "inputs": [
        {
          "internalType": "address",
          "name": "owner",
          "type": "address"
        }
      ],
      "name": "balanceOf",
      "outputs": [
        {
          "internalType": "uint256",
          "name": "",
          "type": "uint256"
        }
      ],
      "stateMutability": "view",
      "type": "function"
    },
    {
      "inputs": [],
      "name": "baseURI",
      "outputs": [
        {
          "internalType": "string",
          "name": "",
          "type": "string"
        }
      ],
      "stateMutability": "view",
      "type": "function"
    },
    {
      "inputs": [
        {
          "internalType": "address",
          "name": "proxyAddress",
          "type": "address"
        }
      ],
      "name": "flipProxyState",
      "outputs": [],
      "stateMutability": "nonpayable",
      "type": "function"
    },
    {
      "inputs": [
        {
          "internalType": "uint256",
          "name": "tokenId",
          "type": "uint256"
        }
      ],
      "name": "getApproved",
      "outputs": [
        {
          "internalType": "address",
          "name": "",
          "type": "address"
        }
      ],
      "stateMutability": "view",
      "type": "function"
    },
    {
      "inputs": [
        {
          "internalType": "bytes32",
          "name": "role",
          "type": "bytes32"
        }
      ],
      "name": "getRoleAdmin",
      "outputs": [
        {
          "internalType": "bytes32",
          "name": "",
          "type": "bytes32"
        }
      ],
      "stateMutability": "view",
      "type": "function"
    },
    {
      "inputs": [
        {
          "internalType": "bytes32",
          "name": "role",
          "type": "bytes32"
        },
        {
          "internalType": "address",
          "name": "account",
          "type": "address"
        }
      ],
      "name": "grantRole",
      "outputs": [],
      "stateMutability": "nonpayable",
      "type": "function"
    },
    {
      "inputs": [
        {
          "internalType": "bytes32",
          "name": "role",
          "type": "bytes32"
        },
        {
          "internalType": "address",
          "name": "account",
          "type": "address"
        }
      ],
      "name": "hasRole",
      "outputs": [
        {
          "internalType": "bool",
          "name": "",
          "type": "bool"
        }
      ],
      "stateMutability": "view",
      "type": "function"
    },
    {
      "inputs": [
        {
          "internalType": "address",
          "name": "_owner",
          "type": "address"
        },
        {
          "internalType": "address",
          "name": "operator",
          "type": "address"
        }
      ],
      "name": "isApprovedForAll",
      "outputs": [
        {
          "internalType": "bool",
          "name": "",
          "type": "bool"
        }
      ],
      "stateMutability": "view",
      "type": "function"
    },
    {
      "inputs": [],
      "name": "name",
      "outputs": [
        {
          "internalType": "string",
          "name": "",
          "type": "string"
        }
      ],
      "stateMutability": "view",
      "type": "function"
    },
    {
      "inputs": [
        {
          "internalType": "uint256",
          "name": "tokenId",
          "type": "uint256"
        }
      ],
      "name": "ownerOf",
      "outputs": [
        {
          "internalType": "address",
          "name": "",
          "type": "address"
        }
      ],
      "stateMutability": "view",
      "type": "function"
    },
    {
      "inputs": [
        {
          "internalType": "address",
          "name": "",
          "type": "address"
        }
      ],
      "name": "projectProxy",
      "outputs": [
        {
          "internalType": "bool",
          "name": "",
          "type": "bool"
        }
      ],
      "stateMutability": "view",
      "type": "function"
    },
    {
      "inputs": [
        {
          "internalType": "bytes32",
          "name": "role",
          "type": "bytes32"
        },
        {
          "internalType": "address",
          "name": "account",
          "type": "address"
        }
      ],
      "name": "renounceRole",
      "outputs": [],
      "stateMutability": "nonpayable",
      "type": "function"
    },
    {
      "inputs": [
        {
          "internalType": "bytes32",
          "name": "role",
          "type": "bytes32"
        },
        {
          "internalType": "address",
          "name": "account",
          "type": "address"
        }
      ],
      "name": "revokeRole",
      "outputs": [],
      "stateMutability": "nonpayable",
      "type": "function"
    },
    {
      "inputs": [
        {
          "internalType": "address",
          "name": "from",
          "type": "address"
        },
        {
          "internalType": "address",
          "name": "to",
          "type": "address"
        },
        {
          "internalType": "uint256",
          "name": "tokenId",
          "type": "uint256"
        }
      ],
      "name": "safeTransferFrom",
      "outputs": [],
      "stateMutability": "nonpayable",
      "type": "function"
    },
    {
      "inputs": [
        {
          "internalType": "address",
          "name": "from",
          "type": "address"
        },
        {
          "internalType": "address",
          "name": "to",
          "type": "address"
        },
        {
          "internalType": "uint256",
          "name": "tokenId",
          "type": "uint256"
        },
        {
          "internalType": "bytes",
          "name": "_data",
          "type": "bytes"
        }
      ],
      "name": "safeTransferFrom",
      "outputs": [],
      "stateMutability": "nonpayable",
      "type": "function"
    },
    {
      "inputs": [
        {
          "internalType": "address",
          "name": "operator",
          "type": "address"
        },
        {
          "internalType": "bool",
          "name": "approved",
          "type": "bool"
        }
      ],
      "name": "setApprovalForAll",
      "outputs": [],
      "stateMutability": "nonpayable",
      "type": "function"
    },
    {
      "inputs": [
        {
          "internalType": "string",
          "name": "_baseURI",
          "type": "string"
        }
      ],
      "name": "setBaseURI",
      "outputs": [],
      "stateMutability": "nonpayable",
      "type": "function"
    },
    {
      "inputs": [
        {
          "internalType": "bytes4",
          "name": "interfaceId",
          "type": "bytes4"
        }
      ],
      "name": "supportsInterface",
      "outputs": [
        {
          "internalType": "bool",
          "name": "",
          "type": "bool"
        }
      ],
      "stateMutability": "view",
      "type": "function"
    },
    {
      "inputs": [],
      "name": "symbol",
      "outputs": [
        {
          "internalType": "string",
          "name": "",
          "type": "string"
        }
      ],
      "stateMutability": "view",
      "type": "function"
    },
    {
      "inputs": [
        {
          "internalType": "uint256",
          "name": "index",
          "type": "uint256"
        }
      ],
      "name": "tokenByIndex",
      "outputs": [
        {
          "internalType": "uint256",
          "name": "",
          "type": "uint256"
        }
      ],
      "stateMutability": "view",
      "type": "function"
    },
    {
      "inputs": [
        {
          "internalType": "address",
          "name": "owner",
          "type": "address"
        },
        {
          "internalType": "uint256",
          "name": "index",
          "type": "uint256"
        }
      ],
      "name": "tokenOfOwnerByIndex",
      "outputs": [
        {
          "internalType": "uint256",
          "name": "",
          "type": "uint256"
        }
      ],
      "stateMutability": "view",
      "type": "function"
    },
    {
      "inputs": [
        {
          "internalType": "uint256",
          "name": "_tokenId",
          "type": "uint256"
        }
      ],
      "name": "tokenURI",
      "outputs": [
        {
          "internalType": "string",
          "name": "",
          "type": "string"
        }
      ],
      "stateMutability": "view",
      "type": "function"
    },
    {
      "inputs": [],
      "name": "totalSupply",
      "outputs": [
        {
          "internalType": "uint256",
          "name": "",
          "type": "uint256"
        }
      ],
      "stateMutability": "view",
      "type": "function"
    },
    {
      "inputs": [
        {
          "internalType": "address",
          "name": "from",
          "type": "address"
        },
        {
          "internalType": "address",
          "name": "to",
          "type": "address"
        },
        {
          "internalType": "uint256",
          "name": "tokenId",
          "type": "uint256"
        }
      ],
      "name": "transferFrom",
      "outputs": [],
      "stateMutability": "nonpayable",
      "type": "function"
    }
  ],
  "transactionHash": "0xac128e59906a3d6cb083b776df76c5387e7575d648146cb64d88e542dbc0ff8d",
  "args": [
    "https://test.test"
  ],
  "numDeployments": 1,
  "solcInputHash": "3e2132ce47081fb3e82e2723c7fdc562",
  "bytecode": "0x60806040523480156200001157600080fd5b50604051620042a8380380620042a8833981810160405281019062000037919062000344565b6040518060400160405280600181526020017f4e000000000000000000000000000000000000000000000000000000000000008152506040518060400160405280600181526020017f53000000000000000000000000000000000000000000000000000000000000008152508160009080519060200190620000bb929190620000f7565b508060019080519060200190620000d4929190620000f7565b50505080600b9080519060200190620000ef929190620000f7565b5050620003f9565b8280546200010590620003c4565b90600052602060002090601f01602090048101928262000129576000855562000175565b82601f106200014457805160ff191683800117855562000175565b8280016001018555821562000175579182015b828111156200017457825182559160200191906001019062000157565b5b50905062000184919062000188565b5090565b5b80821115620001a357600081600090555060010162000189565b5090565b6000604051905090565b600080fd5b600080fd5b600080fd5b600080fd5b6000601f19601f8301169050919050565b7f4e487b7100000000000000000000000000000000000000000000000000000000600052604160045260246000fd5b6200021082620001c5565b810181811067ffffffffffffffff82111715620002325762000231620001d6565b5b80604052505050565b600062000247620001a7565b905062000255828262000205565b919050565b600067ffffffffffffffff821115620002785762000277620001d6565b5b6200028382620001c5565b9050602081019050919050565b60005b83811015620002b057808201518184015260208101905062000293565b83811115620002c0576000848401525b50505050565b6000620002dd620002d7846200025a565b6200023b565b905082815260208101848484011115620002fc57620002fb620001c0565b5b6200030984828562000290565b509392505050565b600082601f830112620003295762000328620001bb565b5b81516200033b848260208601620002c6565b91505092915050565b6000602082840312156200035d576200035c620001b1565b5b600082015167ffffffffffffffff8111156200037e576200037d620001b6565b5b6200038c8482850162000311565b91505092915050565b7f4e487b7100000000000000000000000000000000000000000000000000000000600052602260045260246000fd5b60006002820490506001821680620003dd57607f821691505b602082108103620003f357620003f262000395565b5b50919050565b613e9f80620004096000396000f3fe608060405234801561001057600080fd5b50600436106101cf5760003560e01c80635bab26e211610104578063a217fddf116100a2578063d539139311610071578063d539139314610566578063d547741f14610584578063e985e9c5146105a0578063f73c814b146105d0576101cf565b8063a217fddf146104e0578063a22cb465146104fe578063b88d4fde1461051a578063c87b56dd14610536576101cf565b806370a08231116100de57806370a082311461044457806375b238fc1461047457806391d148541461049257806395d89b41146104c2576101cf565b80635bab26e2146103c65780636352211e146103f65780636c0360eb14610426576101cf565b8063282c51f31161017157806336568abe1161014b57806336568abe1461034257806342842e0e1461035e5780634f6ccce71461037a57806355f804b3146103aa576101cf565b8063282c51f3146102d85780632f2ff15d146102f65780632f745c5914610312576101cf565b8063095ea7b3116101ad578063095ea7b31461025257806318160ddd1461026e57806323b872dd1461028c578063248a9ca3146102a8576101cf565b806301ffc9a7146101d457806306fdde0314610204578063081812fc14610222575b600080fd5b6101ee60048036038101906101e991906128c5565b6105ec565b6040516101fb919061290d565b60405180910390f35b61020c61079e565b60405161021991906129c1565b60405180910390f35b61023c60048036038101906102379190612a19565b610830565b6040516102499190612a87565b60405180910390f35b61026c60048036038101906102679190612ace565b6108b5565b005b6102766109cc565b6040516102839190612b1d565b60405180910390f35b6102a660048036038101906102a19190612b38565b6109d9565b005b6102c260048036038101906102bd9190612bc1565b610a39565b6040516102cf9190612bfd565b60405180910390f35b6102e0610a59565b6040516102ed9190612bfd565b60405180910390f35b610310600480360381019061030b9190612c18565b610a7d565b005b61032c60048036038101906103279190612ace565b610aa6565b6040516103399190612b1d565b60405180910390f35b61035c60048036038101906103579190612c18565b610b4b565b005b61037860048036038101906103739190612b38565b610bce565b005b610394600480360381019061038f9190612a19565b610bee565b6040516103a19190612b1d565b60405180910390f35b6103c460048036038101906103bf9190612d8d565b610c5f565b005b6103e060048036038101906103db9190612dd6565b610ce2565b6040516103ed919061290d565b60405180910390f35b610410600480360381019061040b9190612a19565b610d02565b60405161041d9190612a87565b60405180910390f35b61042e610db3565b60405161043b91906129c1565b60405180910390f35b61045e60048036038101906104599190612dd6565b610e41565b60405161046b9190612b1d565b60405180910390f35b61047c610ef8565b6040516104899190612bfd565b60405180910390f35b6104ac60048036038101906104a79190612c18565b610f1c565b6040516104b9919061290d565b60405180910390f35b6104ca610f87565b6040516104d791906129c1565b60405180910390f35b6104e8611019565b6040516104f59190612bfd565b60405180910390f35b61051860048036038101906105139190612e2f565b611020565b005b610534600480360381019061052f9190612f10565b611036565b005b610550600480360381019061054b9190612a19565b611098565b60405161055d91906129c1565b60405180910390f35b61056e611114565b60405161057b9190612bfd565b60405180910390f35b61059e60048036038101906105999190612c18565b611138565b005b6105ba60048036038101906105b59190612f93565b611161565b6040516105c7919061290d565b60405180910390f35b6105ea60048036038101906105e59190612dd6565b6111d1565b005b60007f80ac58cd000000000000000000000000000000000000000000000000000000007bffffffffffffffffffffffffffffffffffffffffffffffffffffffff1916827bffffffffffffffffffffffffffffffffffffffffffffffffffffffff191614806106b757507f5b5e139f000000000000000000000000000000000000000000000000000000007bffffffffffffffffffffffffffffffffffffffffffffffffffffffff1916827bffffffffffffffffffffffffffffffffffffffffffffffffffffffff1916145b8061071f57507f780e9d63000000000000000000000000000000000000000000000000000000007bffffffffffffffffffffffffffffffffffffffffffffffffffffffff1916827bffffffffffffffffffffffffffffffffffffffffffffffffffffffff1916145b8061078757507f7965db0b000000000000000000000000000000000000000000000000000000007bffffffffffffffffffffffffffffffffffffffffffffffffffffffff1916827bffffffffffffffffffffffffffffffffffffffffffffffffffffffff1916145b806107975750610796826112e1565b5b9050919050565b6060600080546107ad90613002565b80601f01602080910402602001604051908101604052809291908181526020018280546107d990613002565b80156108265780601f106107fb57610100808354040283529160200191610826565b820191906000526020600020905b81548152906001019060200180831161080957829003601f168201915b5050505050905090565b600061083b8261135b565b61087a576040517f08c379a0000000000000000000000000000000000000000000000000000000008152600401610871906130a5565b60405180910390fd5b6004600083815260200190815260200160002060009054906101000a900473ffffffffffffffffffffffffffffffffffffffff169050919050565b60006108c082610d02565b90508073ffffffffffffffffffffffffffffffffffffffff168373ffffffffffffffffffffffffffffffffffffffff1603610930576040517f08c379a000000000000000000000000000000000000000000000000000000000815260040161092790613137565b60405180910390fd5b8073ffffffffffffffffffffffffffffffffffffffff1661094f6113c7565b73ffffffffffffffffffffffffffffffffffffffff16148061097e575061097d816109786113c7565b611161565b5b6109bd576040517f08c379a00000000000000000000000000000000000000000000000000000000081526004016109b4906131c9565b60405180910390fd5b6109c783836113cf565b505050565b6000600880549050905090565b6109ea6109e46113c7565b82611488565b610a29576040517f08c379a0000000000000000000000000000000000000000000000000000000008152600401610a209061325b565b60405180910390fd5b610a34838383611566565b505050565b6000600a6000838152602001908152602001600020600101549050919050565b7f3c11d16cbaffd01df69ce1c404f6340ee057498f5f00246190ea54220576a84881565b610a8682610a39565b610a9781610a926113c7565b6117cc565b610aa18383611869565b505050565b6000610ab183610e41565b8210610af2576040517f08c379a0000000000000000000000000000000000000000000000000000000008152600401610ae9906132ed565b60405180910390fd5b600660008473ffffffffffffffffffffffffffffffffffffffff1673ffffffffffffffffffffffffffffffffffffffff168152602001908152602001600020600083815260200190815260200160002054905092915050565b610b536113c7565b73ffffffffffffffffffffffffffffffffffffffff168173ffffffffffffffffffffffffffffffffffffffff1614610bc0576040517f08c379a0000000000000000000000000000000000000000000000000000000008152600401610bb79061337f565b60405180910390fd5b610bca828261194a565b5050565b610be983838360405180602001604052806000815250611036565b505050565b6000610bf86109cc565b8210610c39576040517f08c379a0000000000000000000000000000000000000000000000000000000008152600401610c3090613411565b60405180910390fd5b60088281548110610c4d57610c4c613431565b5b90600052602060002001549050919050565b610c897fa49807205ce4d355092ef5a8a18f56e8913cf4a201fbe287825b095693c2177533610f1c565b610cc8576040517f08c379a0000000000000000000000000000000000000000000000000000000008152600401610cbf906134ac565b60405180910390fd5b80600b9080519060200190610cde9291906127b6565b5050565b600c6020528060005260406000206000915054906101000a900460ff1681565b6000806002600084815260200190815260200160002060009054906101000a900473ffffffffffffffffffffffffffffffffffffffff169050600073ffffffffffffffffffffffffffffffffffffffff168173ffffffffffffffffffffffffffffffffffffffff1603610daa576040517f08c379a0000000000000000000000000000000000000000000000000000000008152600401610da19061353e565b60405180910390fd5b80915050919050565b600b8054610dc090613002565b80601f0160208091040260200160405190810160405280929190818152602001828054610dec90613002565b8015610e395780601f10610e0e57610100808354040283529160200191610e39565b820191906000526020600020905b815481529060010190602001808311610e1c57829003601f168201915b505050505081565b60008073ffffffffffffffffffffffffffffffffffffffff168273ffffffffffffffffffffffffffffffffffffffff1603610eb1576040517f08c379a0000000000000000000000000000000000000000000000000000000008152600401610ea8906135d0565b60405180910390fd5b600360008373ffffffffffffffffffffffffffffffffffffffff1673ffffffffffffffffffffffffffffffffffffffff168152602001908152602001600020549050919050565b7fa49807205ce4d355092ef5a8a18f56e8913cf4a201fbe287825b095693c2177581565b6000600a600084815260200190815260200160002060000160008373ffffffffffffffffffffffffffffffffffffffff1673ffffffffffffffffffffffffffffffffffffffff16815260200190815260200160002060009054906101000a900460ff16905092915050565b606060018054610f9690613002565b80601f0160208091040260200160405190810160405280929190818152602001828054610fc290613002565b801561100f5780601f10610fe45761010080835404028352916020019161100f565b820191906000526020600020905b815481529060010190602001808311610ff257829003601f168201915b5050505050905090565b6000801b81565b61103261102b6113c7565b8383611a2c565b5050565b6110476110416113c7565b83611488565b611086576040517f08c379a000000000000000000000000000000000000000000000000000000000815260040161107d9061325b565b60405180910390fd5b61109284848484611b98565b50505050565b60606110a38261135b565b6110e2576040517f08c379a00000000000000000000000000000000000000000000000000000000081526004016110d99061363c565b60405180910390fd5b600b6110ed83611bf4565b6040516020016110fe92919061372c565b6040516020818303038152906040529050919050565b7f9f2df0fed2c77648de5860a4cc508cd0818c85b8b8a1ab4ceeef8d981c8956a681565b61114182610a39565b6111528161114d6113c7565b6117cc565b61115c838361194a565b505050565b6000600c60008373ffffffffffffffffffffffffffffffffffffffff1673ffffffffffffffffffffffffffffffffffffffff16815260200190815260200160002060009054906101000a900460ff16156111be57600190506111cb565b6111c88383611d54565b90505b92915050565b6111fb7fa49807205ce4d355092ef5a8a18f56e8913cf4a201fbe287825b095693c2177533610f1c565b61123a576040517f08c379a0000000000000000000000000000000000000000000000000000000008152600401611231906134ac565b60405180910390fd5b600c60008273ffffffffffffffffffffffffffffffffffffffff1673ffffffffffffffffffffffffffffffffffffffff16815260200190815260200160002060009054906101000a900460ff1615600c60008373ffffffffffffffffffffffffffffffffffffffff1673ffffffffffffffffffffffffffffffffffffffff16815260200190815260200160002060006101000a81548160ff02191690831515021790555050565b60007f7965db0b000000000000000000000000000000000000000000000000000000007bffffffffffffffffffffffffffffffffffffffffffffffffffffffff1916827bffffffffffffffffffffffffffffffffffffffffffffffffffffffff19161480611354575061135382611de8565b5b9050919050565b60008073ffffffffffffffffffffffffffffffffffffffff166002600084815260200190815260200160002060009054906101000a900473ffffffffffffffffffffffffffffffffffffffff1673ffffffffffffffffffffffffffffffffffffffff1614159050919050565b600033905090565b816004600083815260200190815260200160002060006101000a81548173ffffffffffffffffffffffffffffffffffffffff021916908373ffffffffffffffffffffffffffffffffffffffff160217905550808273ffffffffffffffffffffffffffffffffffffffff1661144283610d02565b73ffffffffffffffffffffffffffffffffffffffff167f8c5be1e5ebec7d5bd14f71427d1e84f3dd0314c0f7b2291e5b200ac8c7c3b92560405160405180910390a45050565b60006114938261135b565b6114d2576040517f08c379a00000000000000000000000000000000000000000000000000000000081526004016114c9906137c2565b60405180910390fd5b60006114dd83610d02565b90508073ffffffffffffffffffffffffffffffffffffffff168473ffffffffffffffffffffffffffffffffffffffff16148061154c57508373ffffffffffffffffffffffffffffffffffffffff1661153484610830565b73ffffffffffffffffffffffffffffffffffffffff16145b8061155d575061155c8185611161565b5b91505092915050565b8273ffffffffffffffffffffffffffffffffffffffff1661158682610d02565b73ffffffffffffffffffffffffffffffffffffffff16146115dc576040517f08c379a00000000000000000000000000000000000000000000000000000000081526004016115d390613854565b60405180910390fd5b600073ffffffffffffffffffffffffffffffffffffffff168273ffffffffffffffffffffffffffffffffffffffff160361164b576040517f08c379a0000000000000000000000000000000000000000000000000000000008152600401611642906138e6565b60405180910390fd5b611656838383611e62565b6116616000826113cf565b6001600360008573ffffffffffffffffffffffffffffffffffffffff1673ffffffffffffffffffffffffffffffffffffffff16815260200190815260200160002060008282546116b19190613935565b925050819055506001600360008473ffffffffffffffffffffffffffffffffffffffff1673ffffffffffffffffffffffffffffffffffffffff16815260200190815260200160002060008282546117089190613969565b92505081905550816002600083815260200190815260200160002060006101000a81548173ffffffffffffffffffffffffffffffffffffffff021916908373ffffffffffffffffffffffffffffffffffffffff160217905550808273ffffffffffffffffffffffffffffffffffffffff168473ffffffffffffffffffffffffffffffffffffffff167fddf252ad1be2c89b69c2b068fc378daa952ba7f163c4a11628f55a4df523b3ef60405160405180910390a46117c7838383611f74565b505050565b6117d68282610f1c565b611865576117fb8173ffffffffffffffffffffffffffffffffffffffff166014611f79565b6118098360001c6020611f79565b60405160200161181a929190613a57565b6040516020818303038152906040526040517f08c379a000000000000000000000000000000000000000000000000000000000815260040161185c91906129c1565b60405180910390fd5b5050565b6118738282610f1c565b611946576001600a600084815260200190815260200160002060000160008373ffffffffffffffffffffffffffffffffffffffff1673ffffffffffffffffffffffffffffffffffffffff16815260200190815260200160002060006101000a81548160ff0219169083151502179055506118eb6113c7565b73ffffffffffffffffffffffffffffffffffffffff168173ffffffffffffffffffffffffffffffffffffffff16837f2f8788117e7eff1d82e926ec794901d17c78024a50270940304540a733656f0d60405160405180910390a45b5050565b6119548282610f1c565b15611a28576000600a600084815260200190815260200160002060000160008373ffffffffffffffffffffffffffffffffffffffff1673ffffffffffffffffffffffffffffffffffffffff16815260200190815260200160002060006101000a81548160ff0219169083151502179055506119cd6113c7565b73ffffffffffffffffffffffffffffffffffffffff168173ffffffffffffffffffffffffffffffffffffffff16837ff6391f5c32d9c69d2a47ea670b442974b53935d1edc7fd64eb21e047a839171b60405160405180910390a45b5050565b8173ffffffffffffffffffffffffffffffffffffffff168373ffffffffffffffffffffffffffffffffffffffff1603611a9a576040517f08c379a0000000000000000000000000000000000000000000000000000000008152600401611a9190613add565b60405180910390fd5b80600560008573ffffffffffffffffffffffffffffffffffffffff1673ffffffffffffffffffffffffffffffffffffffff16815260200190815260200160002060008473ffffffffffffffffffffffffffffffffffffffff1673ffffffffffffffffffffffffffffffffffffffff16815260200190815260200160002060006101000a81548160ff0219169083151502179055508173ffffffffffffffffffffffffffffffffffffffff168373ffffffffffffffffffffffffffffffffffffffff167f17307eab39ab6107e8899845ad3d59bd9653f200f220920489ca2b5937696c3183604051611b8b919061290d565b60405180910390a3505050565b611ba3848484611566565b611baf848484846121b5565b611bee576040517f08c379a0000000000000000000000000000000000000000000000000000000008152600401611be590613b6f565b60405180910390fd5b50505050565b606060008203611c3b576040518060400160405280600181526020017f30000000000000000000000000000000000000000000000000000000000000008152509050611d4f565b600082905060005b60008214611c6d578080611c5690613b8f565b915050600a82611c669190613c06565b9150611c43565b60008167ffffffffffffffff811115611c8957611c88612c62565b5b6040519080825280601f01601f191660200182016040528015611cbb5781602001600182028036833780820191505090505b5090505b60008514611d4857600182611cd49190613935565b9150600a85611ce39190613c37565b6030611cef9190613969565b60f81b818381518110611d0557611d04613431565b5b60200101907effffffffffffffffffffffffffffffffffffffffffffffffffffffffffffff1916908160001a905350600a85611d419190613c06565b9450611cbf565b8093505050505b919050565b6000600560008473ffffffffffffffffffffffffffffffffffffffff1673ffffffffffffffffffffffffffffffffffffffff16815260200190815260200160002060008373ffffffffffffffffffffffffffffffffffffffff1673ffffffffffffffffffffffffffffffffffffffff16815260200190815260200160002060009054906101000a900460ff16905092915050565b60007f780e9d63000000000000000000000000000000000000000000000000000000007bffffffffffffffffffffffffffffffffffffffffffffffffffffffff1916827bffffffffffffffffffffffffffffffffffffffffffffffffffffffff19161480611e5b5750611e5a8261233c565b5b9050919050565b611e6d83838361241e565b600073ffffffffffffffffffffffffffffffffffffffff168373ffffffffffffffffffffffffffffffffffffffff1603611eaf57611eaa81612423565b611eee565b8173ffffffffffffffffffffffffffffffffffffffff168373ffffffffffffffffffffffffffffffffffffffff1614611eed57611eec838261246c565b5b5b600073ffffffffffffffffffffffffffffffffffffffff168273ffffffffffffffffffffffffffffffffffffffff1603611f3057611f2b816125d9565b611f6f565b8273ffffffffffffffffffffffffffffffffffffffff168273ffffffffffffffffffffffffffffffffffffffff1614611f6e57611f6d82826126aa565b5b5b505050565b505050565b606060006002836002611f8c9190613c68565b611f969190613969565b67ffffffffffffffff811115611faf57611fae612c62565b5b6040519080825280601f01601f191660200182016040528015611fe15781602001600182028036833780820191505090505b5090507f30000000000000000000000000000000000000000000000000000000000000008160008151811061201957612018613431565b5b60200101907effffffffffffffffffffffffffffffffffffffffffffffffffffffffffffff1916908160001a9053507f78000000000000000000000000000000000000000000000000000000000000008160018151811061207d5761207c613431565b5b60200101907effffffffffffffffffffffffffffffffffffffffffffffffffffffffffffff1916908160001a905350600060018460026120bd9190613c68565b6120c79190613969565b90505b6001811115612167577f3031323334353637383961626364656600000000000000000000000000000000600f86166010811061210957612108613431565b5b1a60f81b8282815181106121205761211f613431565b5b60200101907effffffffffffffffffffffffffffffffffffffffffffffffffffffffffffff1916908160001a905350600485901c94508061216090613cc2565b90506120ca565b50600084146121ab576040517f08c379a00000000000000000000000000000000000000000000000000000000081526004016121a290613d37565b60405180910390fd5b8091505092915050565b60006121d68473ffffffffffffffffffffffffffffffffffffffff16612729565b1561232f578373ffffffffffffffffffffffffffffffffffffffff1663150b7a026121ff6113c7565b8786866040518563ffffffff1660e01b81526004016122219493929190613dac565b6020604051808303816000875af192505050801561225d57506040513d601f19601f8201168201806040525081019061225a9190613e0d565b60015b6122df573d806000811461228d576040519150601f19603f3d011682016040523d82523d6000602084013e612292565b606091505b5060008151036122d7576040517f08c379a00000000000000000000000000000000000000000000000000000000081526004016122ce90613b6f565b60405180910390fd5b805181602001fd5b63150b7a0260e01b7bffffffffffffffffffffffffffffffffffffffffffffffffffffffff1916817bffffffffffffffffffffffffffffffffffffffffffffffffffffffff191614915050612334565b600190505b949350505050565b60007f80ac58cd000000000000000000000000000000000000000000000000000000007bffffffffffffffffffffffffffffffffffffffffffffffffffffffff1916827bffffffffffffffffffffffffffffffffffffffffffffffffffffffff1916148061240757507f5b5e139f000000000000000000000000000000000000000000000000000000007bffffffffffffffffffffffffffffffffffffffffffffffffffffffff1916827bffffffffffffffffffffffffffffffffffffffffffffffffffffffff1916145b8061241757506124168261274c565b5b9050919050565b505050565b6008805490506009600083815260200190815260200160002081905550600881908060018154018082558091505060019003906000526020600020016000909190919091505550565b6000600161247984610e41565b6124839190613935565b9050600060076000848152602001908152602001600020549050818114612568576000600660008673ffffffffffffffffffffffffffffffffffffffff1673ffffffffffffffffffffffffffffffffffffffff168152602001908152602001600020600084815260200190815260200160002054905080600660008773ffffffffffffffffffffffffffffffffffffffff1673ffffffffffffffffffffffffffffffffffffffff168152602001908152602001600020600084815260200190815260200160002081905550816007600083815260200190815260200160002081905550505b6007600084815260200190815260200160002060009055600660008573ffffffffffffffffffffffffffffffffffffffff1673ffffffffffffffffffffffffffffffffffffffff16815260200190815260200160002060008381526020019081526020016000206000905550505050565b600060016008805490506125ed9190613935565b905060006009600084815260200190815260200160002054905060006008838154811061261d5761261c613431565b5b90600052602060002001549050806008838154811061263f5761263e613431565b5b90600052602060002001819055508160096000838152602001908152602001600020819055506009600085815260200190815260200160002060009055600880548061268e5761268d613e3a565b5b6001900381819060005260206000200160009055905550505050565b60006126b583610e41565b905081600660008573ffffffffffffffffffffffffffffffffffffffff1673ffffffffffffffffffffffffffffffffffffffff168152602001908152602001600020600083815260200190815260200160002081905550806007600084815260200190815260200160002081905550505050565b6000808273ffffffffffffffffffffffffffffffffffffffff163b119050919050565b60007f01ffc9a7000000000000000000000000000000000000000000000000000000007bffffffffffffffffffffffffffffffffffffffffffffffffffffffff1916827bffffffffffffffffffffffffffffffffffffffffffffffffffffffff1916149050919050565b8280546127c290613002565b90600052602060002090601f0160209004810192826127e4576000855561282b565b82601f106127fd57805160ff191683800117855561282b565b8280016001018555821561282b579182015b8281111561282a57825182559160200191906001019061280f565b5b509050612838919061283c565b5090565b5b8082111561285557600081600090555060010161283d565b5090565b6000604051905090565b600080fd5b600080fd5b60007fffffffff0000000000000000000000000000000000000000000000000000000082169050919050565b6128a28161286d565b81146128ad57600080fd5b50565b6000813590506128bf81612899565b92915050565b6000602082840312156128db576128da612863565b5b60006128e9848285016128b0565b91505092915050565b60008115159050919050565b612907816128f2565b82525050565b600060208201905061292260008301846128fe565b92915050565b600081519050919050565b600082825260208201905092915050565b60005b83811015612962578082015181840152602081019050612947565b83811115612971576000848401525b50505050565b6000601f19601f8301169050919050565b600061299382612928565b61299d8185612933565b93506129ad818560208601612944565b6129b681612977565b840191505092915050565b600060208201905081810360008301526129db8184612988565b905092915050565b6000819050919050565b6129f6816129e3565b8114612a0157600080fd5b50565b600081359050612a13816129ed565b92915050565b600060208284031215612a2f57612a2e612863565b5b6000612a3d84828501612a04565b91505092915050565b600073ffffffffffffffffffffffffffffffffffffffff82169050919050565b6000612a7182612a46565b9050919050565b612a8181612a66565b82525050565b6000602082019050612a9c6000830184612a78565b92915050565b612aab81612a66565b8114612ab657600080fd5b50565b600081359050612ac881612aa2565b92915050565b60008060408385031215612ae557612ae4612863565b5b6000612af385828601612ab9565b9250506020612b0485828601612a04565b9150509250929050565b612b17816129e3565b82525050565b6000602082019050612b326000830184612b0e565b92915050565b600080600060608486031215612b5157612b50612863565b5b6000612b5f86828701612ab9565b9350506020612b7086828701612ab9565b9250506040612b8186828701612a04565b9150509250925092565b6000819050919050565b612b9e81612b8b565b8114612ba957600080fd5b50565b600081359050612bbb81612b95565b92915050565b600060208284031215612bd757612bd6612863565b5b6000612be584828501612bac565b91505092915050565b612bf781612b8b565b82525050565b6000602082019050612c126000830184612bee565b92915050565b60008060408385031215612c2f57612c2e612863565b5b6000612c3d85828601612bac565b9250506020612c4e85828601612ab9565b9150509250929050565b600080fd5b600080fd5b7f4e487b7100000000000000000000000000000000000000000000000000000000600052604160045260246000fd5b612c9a82612977565b810181811067ffffffffffffffff82111715612cb957612cb8612c62565b5b80604052505050565b6000612ccc612859565b9050612cd88282612c91565b919050565b600067ffffffffffffffff821115612cf857612cf7612c62565b5b612d0182612977565b9050602081019050919050565b82818337600083830152505050565b6000612d30612d2b84612cdd565b612cc2565b905082815260208101848484011115612d4c57612d4b612c5d565b5b612d57848285612d0e565b509392505050565b600082601f830112612d7457612d73612c58565b5b8135612d84848260208601612d1d565b91505092915050565b600060208284031215612da357612da2612863565b5b600082013567ffffffffffffffff811115612dc157612dc0612868565b5b612dcd84828501612d5f565b91505092915050565b600060208284031215612dec57612deb612863565b5b6000612dfa84828501612ab9565b91505092915050565b612e0c816128f2565b8114612e1757600080fd5b50565b600081359050612e2981612e03565b92915050565b60008060408385031215612e4657612e45612863565b5b6000612e5485828601612ab9565b9250506020612e6585828601612e1a565b9150509250929050565b600067ffffffffffffffff821115612e8a57612e89612c62565b5b612e9382612977565b9050602081019050919050565b6000612eb3612eae84612e6f565b612cc2565b905082815260208101848484011115612ecf57612ece612c5d565b5b612eda848285612d0e565b509392505050565b600082601f830112612ef757612ef6612c58565b5b8135612f07848260208601612ea0565b91505092915050565b60008060008060808587031215612f2a57612f29612863565b5b6000612f3887828801612ab9565b9450506020612f4987828801612ab9565b9350506040612f5a87828801612a04565b925050606085013567ffffffffffffffff811115612f7b57612f7a612868565b5b612f8787828801612ee2565b91505092959194509250565b60008060408385031215612faa57612fa9612863565b5b6000612fb885828601612ab9565b9250506020612fc985828601612ab9565b9150509250929050565b7f4e487b7100000000000000000000000000000000000000000000000000000000600052602260045260246000fd5b6000600282049050600182168061301a57607f821691505b60208210810361302d5761302c612fd3565b5b50919050565b7f4552433732313a20617070726f76656420717565727920666f72206e6f6e657860008201527f697374656e7420746f6b656e0000000000000000000000000000000000000000602082015250565b600061308f602c83612933565b915061309a82613033565b604082019050919050565b600060208201905081810360008301526130be81613082565b9050919050565b7f4552433732313a20617070726f76616c20746f2063757272656e74206f776e6560008201527f7200000000000000000000000000000000000000000000000000000000000000602082015250565b6000613121602183612933565b915061312c826130c5565b604082019050919050565b6000602082019050818103600083015261315081613114565b9050919050565b7f4552433732313a20617070726f76652063616c6c6572206973206e6f74206f7760008201527f6e6572206e6f7220617070726f76656420666f7220616c6c0000000000000000602082015250565b60006131b3603883612933565b91506131be82613157565b604082019050919050565b600060208201905081810360008301526131e2816131a6565b9050919050565b7f4552433732313a207472616e736665722063616c6c6572206973206e6f74206f60008201527f776e6572206e6f7220617070726f766564000000000000000000000000000000602082015250565b6000613245603183612933565b9150613250826131e9565b604082019050919050565b6000602082019050818103600083015261327481613238565b9050919050565b7f455243373231456e756d657261626c653a206f776e657220696e646578206f7560008201527f74206f6620626f756e6473000000000000000000000000000000000000000000602082015250565b60006132d7602b83612933565b91506132e28261327b565b604082019050919050565b60006020820190508181036000830152613306816132ca565b9050919050565b7f416363657373436f6e74726f6c3a2063616e206f6e6c792072656e6f756e636560008201527f20726f6c657320666f722073656c660000000000000000000000000000000000602082015250565b6000613369602f83612933565b91506133748261330d565b604082019050919050565b600060208201905081810360008301526133988161335c565b9050919050565b7f455243373231456e756d657261626c653a20676c6f62616c20696e646578206f60008201527f7574206f6620626f756e64730000000000000000000000000000000000000000602082015250565b60006133fb602c83612933565b91506134068261339f565b604082019050919050565b6000602082019050818103600083015261342a816133ee565b9050919050565b7f4e487b7100000000000000000000000000000000000000000000000000000000600052603260045260246000fd5b7f4d75737420686176652061646d696e20726f6c65000000000000000000000000600082015250565b6000613496601483612933565b91506134a182613460565b602082019050919050565b600060208201905081810360008301526134c581613489565b9050919050565b7f4552433732313a206f776e657220717565727920666f72206e6f6e657869737460008201527f656e7420746f6b656e0000000000000000000000000000000000000000000000602082015250565b6000613528602983612933565b9150613533826134cc565b604082019050919050565b600060208201905081810360008301526135578161351b565b9050919050565b7f4552433732313a2062616c616e636520717565727920666f7220746865207a6560008201527f726f206164647265737300000000000000000000000000000000000000000000602082015250565b60006135ba602a83612933565b91506135c58261355e565b604082019050919050565b600060208201905081810360008301526135e9816135ad565b9050919050565b7f546f6b656e20646f6573206e6f742065786973742e0000000000000000000000600082015250565b6000613626601583612933565b9150613631826135f0565b602082019050919050565b6000602082019050818103600083015261365581613619565b9050919050565b600081905092915050565b60008190508160005260206000209050919050565b6000815461368981613002565b613693818661365c565b945060018216600081146136ae57600181146136bf576136f2565b60ff198316865281860193506136f2565b6136c885613667565b60005b838110156136ea578154818901526001820191506020810190506136cb565b838801955050505b50505092915050565b600061370682612928565b613710818561365c565b9350613720818560208601612944565b80840191505092915050565b6000613738828561367c565b915061374482846136fb565b91508190509392505050565b7f4552433732313a206f70657261746f7220717565727920666f72206e6f6e657860008201527f697374656e7420746f6b656e0000000000000000000000000000000000000000602082015250565b60006137ac602c83612933565b91506137b782613750565b604082019050919050565b600060208201905081810360008301526137db8161379f565b9050919050565b7f4552433732313a207472616e736665722066726f6d20696e636f72726563742060008201527f6f776e6572000000000000000000000000000000000000000000000000000000602082015250565b600061383e602583612933565b9150613849826137e2565b604082019050919050565b6000602082019050818103600083015261386d81613831565b9050919050565b7f4552433732313a207472616e7366657220746f20746865207a65726f2061646460008201527f7265737300000000000000000000000000000000000000000000000000000000602082015250565b60006138d0602483612933565b91506138db82613874565b604082019050919050565b600060208201905081810360008301526138ff816138c3565b9050919050565b7f4e487b7100000000000000000000000000000000000000000000000000000000600052601160045260246000fd5b6000613940826129e3565b915061394b836129e3565b92508282101561395e5761395d613906565b5b828203905092915050565b6000613974826129e3565b915061397f836129e3565b9250827fffffffffffffffffffffffffffffffffffffffffffffffffffffffffffffffff038211156139b4576139b3613906565b5b828201905092915050565b7f416363657373436f6e74726f6c3a206163636f756e7420000000000000000000600082015250565b60006139f560178361365c565b9150613a00826139bf565b601782019050919050565b7f206973206d697373696e6720726f6c6520000000000000000000000000000000600082015250565b6000613a4160118361365c565b9150613a4c82613a0b565b601182019050919050565b6000613a62826139e8565b9150613a6e82856136fb565b9150613a7982613a34565b9150613a8582846136fb565b91508190509392505050565b7f4552433732313a20617070726f766520746f2063616c6c657200000000000000600082015250565b6000613ac7601983612933565b9150613ad282613a91565b602082019050919050565b60006020820190508181036000830152613af681613aba565b9050919050565b7f4552433732313a207472616e7366657220746f206e6f6e20455243373231526560008201527f63656976657220696d706c656d656e7465720000000000000000000000000000602082015250565b6000613b59603283612933565b9150613b6482613afd565b604082019050919050565b60006020820190508181036000830152613b8881613b4c565b9050919050565b6000613b9a826129e3565b91507fffffffffffffffffffffffffffffffffffffffffffffffffffffffffffffffff8203613bcc57613bcb613906565b5b600182019050919050565b7f4e487b7100000000000000000000000000000000000000000000000000000000600052601260045260246000fd5b6000613c11826129e3565b9150613c1c836129e3565b925082613c2c57613c2b613bd7565b5b828204905092915050565b6000613c42826129e3565b9150613c4d836129e3565b925082613c5d57613c5c613bd7565b5b828206905092915050565b6000613c73826129e3565b9150613c7e836129e3565b9250817fffffffffffffffffffffffffffffffffffffffffffffffffffffffffffffffff0483118215151615613cb757613cb6613906565b5b828202905092915050565b6000613ccd826129e3565b915060008203613ce057613cdf613906565b5b600182039050919050565b7f537472696e67733a20686578206c656e67746820696e73756666696369656e74600082015250565b6000613d21602083612933565b9150613d2c82613ceb565b602082019050919050565b60006020820190508181036000830152613d5081613d14565b9050919050565b600081519050919050565b600082825260208201905092915050565b6000613d7e82613d57565b613d888185613d62565b9350613d98818560208601612944565b613da181612977565b840191505092915050565b6000608082019050613dc16000830187612a78565b613dce6020830186612a78565b613ddb6040830185612b0e565b8181036060830152613ded8184613d73565b905095945050505050565b600081519050613e0781612899565b92915050565b600060208284031215613e2357613e22612863565b5b6000613e3184828501613df8565b91505092915050565b7f4e487b7100000000000000000000000000000000000000000000000000000000600052603160045260246000fdfea2646970667358221220ebbddc7edd0aa5797d1a97903b4e4db7452f2ad4dc33cd14bd56a97020d232a564736f6c634300080d0033",
  "devdoc": {
    "kind": "dev",
    "methods": {
      "approve(address,uint256)": {
        "details": "See {IERC721-approve}."
      },
      "balanceOf(address)": {
        "details": "See {IERC721-balanceOf}."
      },
      "getApproved(uint256)": {
        "details": "See {IERC721-getApproved}."
      },
      "getRoleAdmin(bytes32)": {
        "details": "Returns the admin role that controls `role`. See {grantRole} and {revokeRole}. To change a role's admin, use {_setRoleAdmin}."
      },
      "grantRole(bytes32,address)": {
        "details": "Grants `role` to `account`. If `account` had not been already granted `role`, emits a {RoleGranted} event. Requirements: - the caller must have ``role``'s admin role."
      },
      "hasRole(bytes32,address)": {
        "details": "Returns `true` if `account` has been granted `role`."
      },
      "name()": {
        "details": "See {IERC721Metadata-name}."
      },
      "ownerOf(uint256)": {
        "details": "See {IERC721-ownerOf}."
      },
      "renounceRole(bytes32,address)": {
        "details": "Revokes `role` from the calling account. Roles are often managed via {grantRole} and {revokeRole}: this function's purpose is to provide a mechanism for accounts to lose their privileges if they are compromised (such as when a trusted device is misplaced). If the calling account had been revoked `role`, emits a {RoleRevoked} event. Requirements: - the caller must be `account`."
      },
      "revokeRole(bytes32,address)": {
        "details": "Revokes `role` from `account`. If `account` had been granted `role`, emits a {RoleRevoked} event. Requirements: - the caller must have ``role``'s admin role."
      },
      "safeTransferFrom(address,address,uint256)": {
        "details": "See {IERC721-safeTransferFrom}."
      },
      "safeTransferFrom(address,address,uint256,bytes)": {
        "details": "See {IERC721-safeTransferFrom}."
      },
      "setApprovalForAll(address,bool)": {
        "details": "See {IERC721-setApprovalForAll}."
      },
      "symbol()": {
        "details": "See {IERC721Metadata-symbol}."
      },
      "tokenByIndex(uint256)": {
        "details": "See {IERC721Enumerable-tokenByIndex}."
      },
      "tokenOfOwnerByIndex(address,uint256)": {
        "details": "See {IERC721Enumerable-tokenOfOwnerByIndex}."
      },
      "totalSupply()": {
        "details": "See {IERC721Enumerable-totalSupply}."
      },
      "transferFrom(address,address,uint256)": {
        "details": "See {IERC721-transferFrom}."
      }
    },
    "version": 1
  },
  "userdoc": {
    "kind": "user",
    "methods": {},
    "version": 1
  },
  "storageLayout": {
    "storage": [
      {
        "astId": 407,
        "contract": "contracts/ConfigurableToken.sol:ConfigurableToken",
        "label": "_name",
        "offset": 0,
        "slot": "0",
        "type": "t_string_storage"
      },
      {
        "astId": 409,
        "contract": "contracts/ConfigurableToken.sol:ConfigurableToken",
        "label": "_symbol",
        "offset": 0,
        "slot": "1",
        "type": "t_string_storage"
      },
      {
        "astId": 413,
        "contract": "contracts/ConfigurableToken.sol:ConfigurableToken",
        "label": "_owners",
        "offset": 0,
        "slot": "2",
        "type": "t_mapping(t_uint256,t_address)"
      },
      {
        "astId": 417,
        "contract": "contracts/ConfigurableToken.sol:ConfigurableToken",
        "label": "_balances",
        "offset": 0,
        "slot": "3",
        "type": "t_mapping(t_address,t_uint256)"
      },
      {
        "astId": 421,
        "contract": "contracts/ConfigurableToken.sol:ConfigurableToken",
        "label": "_tokenApprovals",
        "offset": 0,
        "slot": "4",
        "type": "t_mapping(t_uint256,t_address)"
      },
      {
        "astId": 427,
        "contract": "contracts/ConfigurableToken.sol:ConfigurableToken",
        "label": "_operatorApprovals",
        "offset": 0,
        "slot": "5",
        "type": "t_mapping(t_address,t_mapping(t_address,t_bool))"
      },
      {
        "astId": 1396,
        "contract": "contracts/ConfigurableToken.sol:ConfigurableToken",
        "label": "_ownedTokens",
        "offset": 0,
        "slot": "6",
        "type": "t_mapping(t_address,t_mapping(t_uint256,t_uint256))"
      },
      {
        "astId": 1400,
        "contract": "contracts/ConfigurableToken.sol:ConfigurableToken",
        "label": "_ownedTokensIndex",
        "offset": 0,
        "slot": "7",
        "type": "t_mapping(t_uint256,t_uint256)"
      },
      {
        "astId": 1403,
        "contract": "contracts/ConfigurableToken.sol:ConfigurableToken",
        "label": "_allTokens",
        "offset": 0,
        "slot": "8",
        "type": "t_array(t_uint256)dyn_storage"
      },
      {
        "astId": 1407,
        "contract": "contracts/ConfigurableToken.sol:ConfigurableToken",
        "label": "_allTokensIndex",
        "offset": 0,
        "slot": "9",
        "type": "t_mapping(t_uint256,t_uint256)"
      },
      {
        "astId": 24,
        "contract": "contracts/ConfigurableToken.sol:ConfigurableToken",
        "label": "_roles",
        "offset": 0,
        "slot": "10",
        "type": "t_mapping(t_bytes32,t_struct(RoleData)19_storage)"
      },
      {
        "astId": 2487,
        "contract": "contracts/ConfigurableToken.sol:ConfigurableToken",
        "label": "baseURI",
        "offset": 0,
        "slot": "11",
        "type": "t_string_storage"
      },
      {
        "astId": 2491,
        "contract": "contracts/ConfigurableToken.sol:ConfigurableToken",
        "label": "projectProxy",
        "offset": 0,
        "slot": "12",
        "type": "t_mapping(t_address,t_bool)"
      }
    ],
    "types": {
      "t_address": {
        "encoding": "inplace",
        "label": "address",
        "numberOfBytes": "20"
      },
      "t_array(t_uint256)dyn_storage": {
        "base": "t_uint256",
        "encoding": "dynamic_array",
        "label": "uint256[]",
        "numberOfBytes": "32"
      },
      "t_bool": {
        "encoding": "inplace",
        "label": "bool",
        "numberOfBytes": "1"
      },
      "t_bytes32": {
        "encoding": "inplace",
        "label": "bytes32",
        "numberOfBytes": "32"
      },
      "t_mapping(t_address,t_bool)": {
        "encoding": "mapping",
        "key": "t_address",
        "label": "mapping(address => bool)",
        "numberOfBytes": "32",
        "value": "t_bool"
      },
      "t_mapping(t_address,t_mapping(t_address,t_bool))": {
        "encoding": "mapping",
        "key": "t_address",
        "label": "mapping(address => mapping(address => bool))",
        "numberOfBytes": "32",
        "value": "t_mapping(t_address,t_bool)"
      },
      "t_mapping(t_address,t_mapping(t_uint256,t_uint256))": {
        "encoding": "mapping",
        "key": "t_address",
        "label": "mapping(address => mapping(uint256 => uint256))",
        "numberOfBytes": "32",
        "value": "t_mapping(t_uint256,t_uint256)"
      },
      "t_mapping(t_address,t_uint256)": {
        "encoding": "mapping",
        "key": "t_address",
        "label": "mapping(address => uint256)",
        "numberOfBytes": "32",
        "value": "t_uint256"
      },
      "t_mapping(t_bytes32,t_struct(RoleData)19_storage)": {
        "encoding": "mapping",
        "key": "t_bytes32",
        "label": "mapping(bytes32 => struct AccessControl.RoleData)",
        "numberOfBytes": "32",
        "value": "t_struct(RoleData)19_storage"
      },
      "t_mapping(t_uint256,t_address)": {
        "encoding": "mapping",
        "key": "t_uint256",
        "label": "mapping(uint256 => address)",
        "numberOfBytes": "32",
        "value": "t_address"
      },
      "t_mapping(t_uint256,t_uint256)": {
        "encoding": "mapping",
        "key": "t_uint256",
        "label": "mapping(uint256 => uint256)",
        "numberOfBytes": "32",
        "value": "t_uint256"
      },
      "t_string_storage": {
        "encoding": "bytes",
        "label": "string",
        "numberOfBytes": "32"
      },
      "t_struct(RoleData)19_storage": {
        "encoding": "inplace",
        "label": "struct AccessControl.RoleData",
        "members": [
          {
            "astId": 16,
            "contract": "contracts/ConfigurableToken.sol:ConfigurableToken",
            "label": "members",
            "offset": 0,
            "slot": "0",
            "type": "t_mapping(t_address,t_bool)"
          },
          {
            "astId": 18,
            "contract": "contracts/ConfigurableToken.sol:ConfigurableToken",
            "label": "adminRole",
            "offset": 0,
            "slot": "1",
            "type": "t_bytes32"
          }
        ],
        "numberOfBytes": "64"
      },
      "t_uint256": {
        "encoding": "inplace",
        "label": "uint256",
        "numberOfBytes": "32"
      }
    }
  }
}